:080000000C942F000C94000089
:100008000C9400000C9400000C9400000C94000068
:100018000C9400000C9400000C9400000C94000058
:100028000C9400000C9400000C9400000C94000048
:100038000C9400000C9400000C9400000C94000038
:100048000C9400000C9400000C94000000000200C6
:10005800040054000000F894EE27ECBBF1E0FBBF6D
:10006800EBBFE5BF8DE0A2E0BB27ED938A95E9F7EA
:1000780080E098E0A0E6ED930197E9F7E6E5F0E087
:1000880085919591009761F0A591B591059015908E
:10009800BF01F00105900D920197E1F7FB01F0CF48
:1000A800EFE5EDBFE8E0EEBFC0E6D2E00C945C00FF
:1000B800EFE0EABBE0E0EBBBE7E0E7BBE0E0E8BB92
:1000C800E7E0E4BBE0E0E5BBEFE0E1BBE0E0E2BB9A
:1000D800E3BFE2BFECBFEFBDEEBDEDBDECBDE7BDDC
:1000E800E6BDEBBDEABDE9BDE8BDE2BDE5BDE4BDE9
:1000F800E3BDE9BFE5BFE4BFEAB9E0E8E8B9E0E09D
:10010800E0BFE6B9EDB9E6BFA898A998AA9AC09A3F
:10011800C198C298E9E0F0E02F01E3E0F0E04E1664
:100128005F062CF03DD0F20131972F01F6CFA89849
:10013800A998AA9AC098C19AC298E2E0F0E02F0163
:100148000024401450042CF02BD0F20131972F01D9
:10015800F7CFA89AA998AA98C098C198C29AE9E036
:10016800F0E02F01E3E0F0E04E165F062CF018D027
:10017800F20131972F01F6CFA898A99AAA98C098AA
:10018800C198C29AE2E0F0E02F0100244014500424
:100198002CF006D0F20131972F01F7CFB5CFFFCF62
:1001A8004BBA42BAA8EEB3E00C94DA00109639F0D4
:1001B800A89580ED97E00197F1F71197C9F7089591
:00000001FF
