:100000000C9433000C9400000C9400000C9400003D
:100010000C9400000C9400000C9400000C94000060
:100020000C9400000C9400000C9400000C94000050
:100030000C9400000C9400000C9400000C94000040
:100040000C9400000C9400000C9400000C94000030
:100050000C9400004D656872616E000080C0020063
:1000600060015C000000F894EE27ECBBF1E0FBBF00
:10007000EBBFE5BF8DE0A2E0BB27ED938A95E9F7E2
:1000800080E094E0A0E6ED930197E9F7EEE5F0E07B
:1000900085919591009761F0A591B5910590159086
:1000A000BF01F00105900D920197E1F7FB01F0CF40
:1000B000EFE5EDBFE4E0EEBFC0E6D1E00C946000F8
:1000C00000E010E0A0E275D000E010E00131E0E0D7
:1000D0001E0774F43CD00A93A0E02CD0A4E5B0E055
:1000E00055D0A8ECB0E00E940E010F5F1F4FEECF7D
:1000F000EBCFFFCFAA93EBB3EF70AE2FE881E07F99
:10010000EA2BEBBB82E08A95F1F7DA9A82E08A95D6
:10011000F1F7DA9882E08A95F1F773C0AA93A88183
:10012000E9DFE881E295E883A881E4DF81E18A954F
:10013000F1F767C0AA93E881F0E0E05AFE4FE08152
:10014000A981AE0FEBDF5980488022960895A2E086
:100150005AD0ACE0E3DFA1E056D0E0E04E2E5E2EB8
:100160000895AA93A881AA3011F0571448F0E0E04E
:10017000EA934394A42DDEDFA881AA3009F441C09C
:100180005394D89AA881CADFD8983BC0BA93AA934F
:100190001A93E981FA813196E983FA833197E491E0
:1001A0001E2FE03019F0A12FDCDFF3CF188123964A
:1001B0000895AA93EAB3E06FEABBD29AD09AD19A93
:1001C000DA98D898D9987880E881E058E09362016D
:1001D000E881E054E0936301A4E1B0E00E940E01E5
:1001E00017D016D015D0A0E285DF81E28A95F1F70D
:1001F000A8E294DFA4E092DFA5E890DFA6E08EDF1E
:10020000A6DF219608958ADFA3E0B0E00C940E01EA
:10021000A0E370DF81E28A95F1F70895109639F036
:10022000A8958AEF90E00197F1F71197C9F7089523
:00000001FF
