:020000000C945E
:10000200B9000C9400000C9400000C9400000C94B5
:1000120000000C9400000C9400000C9400000C945E
:1000220000000C9400000C9400000C9400000C944E
:1000320000000C9400000C9400000C9400000C943E
:1000420000000C9400000C9400000C9400000C942E
:1000520000004079243019120278001000000000DC
:10006200000000000000000053656C6563742059B5
:100072006F7572205465616D203A005465616D2080
:1000820031202020204F52202020205465616D20F5
:100092003200596F752053656C6563742054656135
:1000A2006D3100546564616420546176697A20542C
:1000B20065616D313D200054656461642054617650
:1000C200697A205465616D310069732046756C6CE4
:1000D20000596F752053656C656374205465616DBA
:1000E2003200546564616420546176697A205465F3
:1000F200616D323D2000546564616420546176690B
:100102007A205465616D32004E756D6265722050C1
:100112006C61796572494E206973004E756D626536
:100122007220506C617965724F55542069730000DA
:1001320001002D4E414E00494E46000080C0130082
:1001420060016A00170073017D0011008A019400AA
:1001520014009B01A5001200AF01B9001400C101F7
:10016200E4000100D50132010200D9013E01000084
:10017200F894EE27ECBBF1E0FBBFEBBFE5BF8DE0EF
:10018200A2E0BB27ED938A95E9F780E094E0A0E630
:10019200ED930197E9F7E0E4F1E0859195910097FD
:1001A20061F0A591B59105901590BF01F001059000
:1001B2000D920197E1F7FB01F0CFEFE5EDBFE4E02F
:1001C200EEBFC0E6D1E00C94E6006E9786E1A8E0AF
:1001D200B0E0E4E5F0E00E94B20302E310E022E3C3
:1001E20030E040E050E0E0E0E7BBEFEFE4BBE1BB32
:1001F200A4E10E94F3020E949302E1E00E9426031E
:10020200A0E6B1E00E94C0020E942A03A3E7B1E087
:100212000E94C002B09B2AC04F5F5F4F0E949302B0
:10022200E2E00E942603AAE8B1E00E94C002443044
:10023200E0E05E0754F40E942A03ABE9B1E00E94B9
:10024200C002FA010E942F030EC04430E0E05E07B4
:1002520054F0E2E00E943A03AFEAB1E00E94C00229
:100262000E943E03C8CF0E944B0331C0B19B2EC0F7
:10027200EC8DFD8D3196EC8FFD8F0E949302E2E0B2
:100282000E942603A3EDB0E00E94CF02AC8DBD8D8B
:10029200139759F40E942A03A1ECB1E00E94C00214
:1002A200EC8DFD8D0E942F030EC0AC8DBD8D149779
:1002B20054F0E2E00E943A03A8EFB0E00E94CF02BD
:1002C2000E943E0398CF0E944B0301C0A3CF0E941D
:1002D2004B030E949302E0E00E942603AAE0B1E0F1
:1002E2000E94CF02B29925C0B09B09C00F5F1F4F79
:1002F2000436E0E01E0714F001E010E00AC0B19BF2
:100302000CC0015010400130E0E01E0714F403E677
:1003120010E0ACE2B1E00E9470031A930A93DE018E
:1003220054960E941502E8E00E943A030E944F038D
:10033200D9CFA4EFB1E00E947003E0E0EA93A2E01B
:100342000E948302ADE1B1E00E94CF02B29927C0C0
:10035200B09B09C02F5F3F4F2436E0E03E0714F008
:1003620021E030E00AC0B19B0CC021503040213066
:10037200E0E03E0714F423E630E0ACE2B1E00E9494
:1003820070033A932A93DE0154960E941502E8E024
:10039200EA93A3E00E9483020E944F03D7CFA4EF07
:1003A200B1E00E947003D801EAE0F0E00E949103FC
:1003B200EE83FF83D801EAE0F0E00E949603EC832B
:1003C200FD83D901EAE0F0E00E949103EA83FB8316
:1003D200D901EAE0F0E00E949603E883F983B2993A
:1003E20021C0909AEE81FF810E9457039098919AC2
:1003F200EC81FD810E9457039198929A0E946103B9
:100402009298939A0E9461039398949AEA81FB814D
:100412000E9457039498959AE881F9810E945703A4
:100422009598DDCFE8CEFFCFBA93AA93A991B9915F
:10043200E991F99130962AF4E095F09531966DE2C2
:100442006D93E89480E197E20DD088EE93E00AD0B4
:1004520084E6992707D08AE005D06E2F10D0662750
:100462006C9308956627E817F90720F06395E81B57
:10047200F90BC9F7662311F416F008956894605DCC
:100482006D930895FFE0FA95F1F70895AAB3AF705E
:10049200AABBD99AD898F6DFDA9AF4DFA9B3DA9828
:1004A200F1DFDA9AEFDFDA98A7FDF5CF0895A07FA2
:1004B200AB2BABBBDA9A0E944302DA980E9443024A
:1004C2000895AA93D998AAB3A76FAABBBBB3BF706A
:1004D200A881EDDFA881A295EADFD99A0C942403C2
:1004E200DA9A0E944302E9B3DA980E944302E07F5B
:1004F20008950E944302F4DFAE2FF2DFD998E2950D
:10050200EA2B0895AA930E944702E881F0E0E7529D
:10051200FE4FE081A981AE0F0E946202598048809D
:10052200229608950E944702A2E00E9462020E945F
:100532004702ACE00E9462020E944702A1E00E94D0
:100542006202E0E04E2E5E2E0895AA93EF93FF938F
:10055200A8816894AA3019F0E894571430F04394B3
:10056200E0E0EA93A42DCEDF36F053948FDFD89AE1
:10057200A8810E946202FF91EF910C942403BA9326
:10058200AA931A93A981BA81ED91A983BA831E2FE6
:10059200E03019F0A12FD9DFF5CF10C0BA93AA939A
:1005A2001A93E981FA813196E983FA833197E491CA
:1005B2001E2FE03019F0A12FC8DFF3CF1881239648
:1005C2000895AA27BB271197F1F70895AA93D998FE
:1005D200AAB3A76FAABBBBB3BF70A8810E9458027F
:1005E200D99A31C0AA93DA98D8987880E881E058ED
:1005F200E093DB01E881E054E093DC010E946703B1
:100602000E9467030E946703DCDFA0E2DFDFD9DF1D
:10061200A8E20E946C03A4E00E946C03A5E80E9479
:100622006C03AAB3AF70AABBD99A0E947A02E530D2
:1006320011F0E0E008C00E944702A6E00E946202B8
:100642000E949302E1E021960895EA93A0E00C94BF
:100652008302E0E0EA93A1E00C9483023197FA93DB
:10066200EA93DE0154960E941502DE0152960C9422
:10067200C002EA93A1E00C948302E6E0EA93A2E0CE
:100682000E948302ABECB0E00E94CF02A8EEB3E07E
:100692000C947003A8EEB3E00C947003DE01529642
:1006A2000E94C002A7EBB0E00C94CF02DE011896C4
:1006B200AE0FBF1FEC91E5BBA1E0B0E00C9470035C
:1006C200EFE3E5BBA1E0B0E00C9470030E94E2020C
:1006D200A0E30C94E7020E9462020C94E2021096DC
:1006E20039F0A89580ED97E00197F1F71197C9F7D6
:1006F2000895F195E195F04008950024112490E1C8
:10070200AA0FBB1F001C111C0E1A1F0A18F40E0E92
:100712001F1E01C0A1609A9599F7FD01D0010895AD
:1007220012D0EBDF0EF4E5DF0895E894B7FF04C0C2
:10073200A095B09511966894F7FDDBDFDEDFFD0131
:100742000EF4D7DF0895E894F7FF02C0D2DF689471
:10075200B7FF06C0A095B095119600F8039400FA71
:100762000895AC0FBD1F05900D928A95E1F708958B
:00000001FF
