:060000000C943A000C9480
:1000060000000C9400000C9400000C9400000C946A
:1000160000000C9400000C9400000C9400000C945A
:1000260000000C9400000C9400000C9400000C944A
:1000360000000C9400000C9400000C9400000C943A
:1000460000000C9400000C9400000C940000065B69
:100056004F666D7D065B4F666D7D01002D4E414EF0
:1000660000494E4600000100600160000000F8945F
:10007600EE27ECBBF1E0FBBFEBBFE5BF8DE0A2E0F6
:10008600BB27ED938A95E9F780E094E0A0E6ED932F
:100096000197E9F7ECE6F0E085919591009761F01C
:1000A600A591B59105901590BF01F00105900D92AF
:1000B6000197E1F7FB01F0CFEFE5EDBFE4E0EEBF1E
:1000C600C0E6D1E00C9467002C978CE0A0E0B0E08D
:1000D600E4E5F0E00E94340100E010E020E030E0CA
:1000E600EFEFE4BBE0E0E5BBEFEFE1BBE0E0E2BB56
:1000F600EABBE1E0EBBBE2B7F0E0DF010E94AE0055
:10010600C89927C00E94CF008F010E94CF009F018F
:10011600E6E0F0E0E017F10711F400E010E0E6E0B9
:10012600F0E0E217F30711F420E030E0DE01169666
:10013600A00FB11FEC91E5BBDE01A20FB31FEC913E
:10014600E2BBAAE0B0E00E94E0000F5F1F4F2F5F06
:100156003F4FD6CFFFCFBA93AA93E881F9810E9489
:10016600EE000E94D70022960895E0916001F0917A
:1001760061016091620170916301ADE6BEE486ECB7
:1001860091E40E94F300EE59F8486F4F7F4F0E94AA
:10019600D700FB01FF7708950E94B800DF01E6E073
:1001A600F0E00E9426010895E0936001F09361015A
:1001B60060936201709363010895109639F0A895D3
:1001C6008AEF90E00197F1F71197C9F70895F19535
:1001D600E195F04008956F2F660F660B762F089510
:1001E6007A9F702D6B9F700DF89F700DE99F700DB3
:1001F6006A9F602D710DFB9F600D711DE89F600D5C
:10020600711D8827FA9FF02D610D781FEB9FF00D69
:10021600611D781FEA9FE02DF10D681F781F089574
:100226000024112490E1AA0FBB1F001C111C0E1AFA
:100236001F0A18F40E0E1F1E01C0A1609A9599F7A9
:10024600FD01D0010895E894B7FF04C0A095B095CC
:1002560011966894F7FDBBDFE3DFFD010EF4B7DF0F
:100266000895AC0FBD1F05900D928A95E1F708958C
:00000001FF
